:020000040800F2
:10000000604700209D010008E7260008F322000851
:10001000E52600089D070008494C00080000000084
:10002000000000000000000000000000E9320008AD
:100030009F0700080000000063280008F532000850
:10004000B7010008B7010008B7010008B7010008B0
:10005000B7010008B7010008B7010008B7010008A0
:10006000B7010008B7010008B7010008B701000890
:10007000B7010008B7010008B7010008B701000880
:10008000B7010008B7010008B7010008B701000870
:10009000B7010008B7010008B7010008B701000860
:1000A000B7010008B7010008B7010008B701000850
:1000B000B7010008B7010008B7010008B701000840
:1000C000B7010008B7010008B7010008D9300008DF
:1000D000B70100084D360008B7010008B701000855
:1000E000B7010008B7010008B7010008B701000810
:1000F000B7010008B7010008B7010008B701000800
:10010000B7010008B7010008B7010008B7010008EF
:10011000B7010008B7010008B7010008B7010008DF
:10012000B7010008B7010008B7010008B7010008CF
:10013000B7010008B7010008B7010008B7010008BF
:10014000B7010008B7010008B7010008E926000858
:10015000B7010008B7010008B7010008B70100089F
:10016000B7010008B7010008B7010008B70100088F
:10017000B7010008B7010008B7010008000000003F
:10018000B7010008B7010008DFF80CD000F05AFAF8
:1001900000480047855A000860470020064880470D
:1001A00006480047FEE7FEE7FEE7FEE7FEE7FEE75C
:1001B000FEE7FEE7FEE7FEE77D3300088901000861
:1001C0002DE9F05F0546002092469B46884606468C
:1001D000814640241BE0284641464746224600F01F
:1001E00069F853465A46C01A914110D31146184631
:1001F000224600F050F82D1A67EB01084F462246C0
:100200000120002100F047F817EB00094E41201EA5
:10021000A4F10104DFDC484631462A464346BDE8E6
:10022000F09F40EA01039B0703D009E008C9121FB1
:1002300008C0042AFAD203E011F8013B00F8013BA0
:10024000521EF9D27047D2B201E000F8012B491ECC
:10025000FBD270470022F6E710B513460A46044663
:100260001946FFF7F0FF204610BD30B50B4601469A
:1002700000202022012409E021FA02F59D4205D345
:1002800003FA02F5491B04FA02F52844151EA2F1EF
:100290000102F1DC30BD202A04DB203A00FA02F131
:1002A000002070479140C2F1200320FA03F3194364
:1002B00090407047202A04DB203A21FA02F0002106
:1002C000704721FA02F3D040C2F120029140084366
:1002D000194670472DE9FE4F804681EA0300C00FA2
:1002E0000C46009021F0004123F00045B8EB0200DD
:1002F000A94105D24046214690461C460B4602467F
:1003000023F00040104347D0270DC7F30A00C3F382
:100310000A510290401A019040286BDAC3F313008F
:1003200040F4801B0098924620B10023D2EB030AD0
:1003300063EB0B0B01985946C0F140025046FFF7A2
:10034000AAFF06460D4650465946019A00F08CF920
:1003500010EB08006141002487EA115284EAE77338
:100360001A4340D0009A62B3019A012A4FEA075219
:1003700015DC001B61EB02014FF0004202EA07525C
:10038000CDE90042001C41F5801132462B4600F0B9
:100390008CF903B0BDE8F08F40462146F9E7001B19
:1003A00061EB0201001C41F5801300185B4120182D
:1003B000A2F5001747EB030140EAD570B6196D416D
:1003C00011E06D084FEA360645EAC0754FEA07525C
:1003D000001B61EB0201001C41F5801149084FEA46
:1003E00030000019514132462B4603B0BDE8F04FB2
:1003F00000F04CB90098012240000023D0EB02022B
:1004000063EBE073009821464FEAE074B8EB00001C
:1004100061EB0401E9E783F000435BE781F0004111
:1004200058E72DE9FE4F81EA030404F0004421F06F
:10043000004100944FF0000B23F0004350EA010408
:100440005ED052EA03045BD0C3F30A54C1F30A55E9
:100450002C44A4F2F3340194A0FB0254C1F3130121
:1004600041F48011C3F3130343F4801301FB0244EE
:1004700000FB034E840A970A44EA815447EA8357F3
:10048000A4FB076802958D0A05FB07854FEA932CAC
:1004900004FB0C542705029D4FEA065847EA16371D
:1004A000B5EB08056EEB070C870E920E47EA811735
:1004B00042EA8312A7FB0201B6EB0B0164EB0004D6
:1004C0002B0D43EA0C335E1844EB1C50DA465146C0
:1004D000E7FB0201C5F313044FEA0B3343EA14535D
:1004E0004FEA0432019C43EA0603A4F10C0402948F
:1004F000009CCDE900B400F0D8F803B0BDE8F08F5F
:1005000000200146F9E72DE9F04D81EA030404F0EB
:10051000004B21F0004514464FF0000A23F0004143
:1005200050EA050220D054EA01021DD0C5F30A5753
:100530000246C5F31303C1F31300C1F30A5640F496
:10054000801543F48013A7EB0608101BD64608F26B
:10055000FD3873EB050002D308F1010801E09218A1
:100560005B41B8F1000F03DA00200146BDE8F08DD1
:1005700000204FF48011064684460EE0171B73EBF3
:10058000050705D3121B63EB050306434CEA010C78
:1005900049084FEA300092185B4150EA0107EDD15B
:1005A00052EA030012D082EA040083EA05010843FC
:1005B00005D0101BAB4106D20122002306E0002229
:1005C0004FF0004302E06FF0010253101AEB0600F7
:1005D0004CEB085110EB0A0041EB0B01BDE8F04D6C
:1005E00000F054B8C1F30A52C1F3130140F2FF33D3
:1005F00041F480119A4202DA00200146704740F22D
:1006000033439A42A2F2334202DC5242FFF752BE17
:10061000FFF741BE30B5041E71F1000404DB4FF05A
:100620000044404264EB0101141E73F1000405DB39
:100630001C464FF00043524263EB0403994208BF4B
:10064000904230BD064C074D06E0E06840F00103E3
:1006500094E8070098471034AC42F6D3FFF798FDB2
:10066000747E0008947E0008202A06DBCB17203A0F
:1006700041FA02F043EAE07306E041FA02F3D040A7
:10068000C2F12002914008431946704710B5141E6C
:1006900073F1000408DA401C41F1000192185B413B
:1006A0001A4301D120F0010010BD2DE9F04D924612
:1006B0009B4611B1B1FA81F202E0B0FA80F2203229
:1006C0009046FFF7E8FD04460F4640EA0A0041EA7B
:1006D0000B0153465A46084313D0114653EA010012
:1006E00019D0C8F140025046FFF7E4FD05460E461A
:1006F000504659464246FFF7CEFD084305D001203B
:1007000004E020463946BDE8F08D0020054346EA66
:10071000E0762C4337430A986305E40AA0EB08000F
:100720000022FD0A44EA47540A3002D5002001465F
:10073000E9E7010510196941DDE90845001969413A
:10074000BDE8F04DA2E770B58C1810F8015B15F00C
:10075000070301D110F8013B2A1106D110F8012B33
:1007600003E010F8016B01F8016B5B1EF9D12B0758
:1007700005D40023521E0DD401F8013BFAE710F80E
:10078000013BCB1A921C03E013F8015B01F8015BFB
:10079000521EF9D5A142D8D3002070BDFEE77047A4
:1007A000704790F83510022903D08021416501205F
:1007B0007047052180F835100068016821F00101BB
:1007C000016000207047000070B5044600F0F0F8AA
:1007D0000546601C02D004480078044400F0E8F8A4
:1007E000401BA042FAD370BDE40000202DE9F84F71
:1007F00000224FF0010803254FF00F0E0B6808FA96
:1008000002F42340A3426ED14E68012E05D0022E81
:1008100003D0112E01D0122E12D186684FEA420C5D
:1008200005FA0CF7BE43CF6807FA0CF73743876029
:100830004668A6430C79C4F30014944034434460E2
:10084000C668570005FA07FC8C6826EA0C06BC400F
:100850003443C4604C68022C01D0122C13D1D4084C
:1008600000EB8404A346D4F8209054074FEAD46ADE
:100870000EFA0AF629EA06090E6906FA0AF646EAA7
:100880000906CBF8206006680C7926EA0C0604F00D
:100890000304BC40344304604C68E40065D5364C26
:1008A000266846F480462660246822F0030604F495
:1008B00080440094314C3444A446D4F80848960748
:1008C000370F0EFA07F6B4432D4EB04201D1002681
:1008D00024E02C4EB04201D101261FE02A4EB04246
:1008E00002D102261AE040E0284EB04201D1032690
:1008F00014E0274EB04201D104260FE0254EB0424D
:1009000001D105260AE0244EB04201D1062605E0B9
:10091000224EB04201D1072600E00826BE40264301
:10092000CCF808681E4E34684F689C43FF0300D51E
:100930001C4334601A4C241D26684F689E43BF0335
:1009400000D51E432660164E083634684F689C4317
:10095000FF0200D51C433460114E0C3634684F68DA
:100960009C43BF0200D51C433460521C102AFFF484
:1009700045AFBDE8F88F0000443802400030014028
:10098000000002400004024000080240000C024047
:10099000001002400014024000180240001C0240F7
:1009A000003C01400AB1816170470904FBE7000087
:1009B0000148806870470000E40000200248816818
:1009C0000278114481607047E40000200B4810B5A4
:1009D000016841F400710160016841F480610160C7
:1009E000016841F480710160032000F06FF800207D
:1009F00000F006F800F024F8002010BD003C024092
:100A000070B50D4D04464FF47A712878B1FBF0F0C3
:100A10000A490968B1FBF0F001F0FDFA48B9102C61
:100A200007D200222146501E00F030F800206C60F2
:100A300070BD012070BD0000E4000020F000002027
:100A40000A4808B5016841F480410160006800F47B
:100A5000804000900548001F016841F0805101600E
:100A6000006800F08050009008BD0000443802404B
:100A7000002809DB00F01F0201219140400980009D
:100A800000F1E020C0F8001170470000F0B40E4BF8
:100A90001B680C46C3F30223C3F10705042D00D9DC
:100AA0000425191D072901D2002300E0DB1E0126C1
:100AB00006FA05F1491E214099409E40761E1640D7
:100AC0003143F0BC04F0E8B80CED00E0064900F05A
:100AD000070208684FF6FF03184040EA0220034A65
:100AE00010430860704700000CED00E00000FA05BC
:100AF00070470068416200207047F0B50368586A8B
:100B000039B19C6A4FF4827600EB144400204D1EEC
:100B10000AE040EA024098620FE006EB8007DF59E6
:100B2000401C04EB1744C0B2A842F6D344EA02408A
:100B30004FF4807202EB810158500020F0BDD0F8D4
:100B4000040402F09CBFC1EBC10200EB8202D0F8AA
:100B50000404926C02F007BFC1EBC10200EB8202F9
:100B6000D0F80404D2F8082202F052BFD0F80404EE
:100B700002F087BF70B504460B0601F00F00C0EB12
:100B8000C00104EB81014FF001024FF0000503D5D5
:100B900081F83D203C3103E081F8FD5101F5FE7103
:100BA000087094F8BC03012808D084F8BC2320689E
:100BB00003F0E2FB84F8BC53002070BD022070BD3E
:100BC00070B5044601F00F006268904201D901201F
:100BD00070BD0B0601F00F01C1EBC10104EB8101F7
:100BE0004FF001024FF0000503D581F83D203C3164
:100BF00003E081F8FD5101F5FE718D70087094F8E5
:100C0000BC03012808D084F8BC23206803F0AEFDA3
:100C100084F8BC53002070BD022070BD10B504469E
:100C200090F8BC0301280AD0012084F8BC03080610
:100C300007D501F00F01206803F0FAFE04E002205E
:100C400010BD206803F0E4FE002084F8BC0310BD52
:100C500001F00F01C1EBC10100EB8100D0F81402DB
:100C600070472DE9F04104460F0601F00F00C0EB7C
:100C7000C00104EB81014FF001064FF0000503D5E0
:100C800081F83D603C3103E081F8FD5101F5FE71D2
:100C900008708A60CB704A7802B1C880022B00D1FC
:100CA0000D7194F8BC03012809D084F8BC63206856
:100CB00003F0BEFA284684F8BC53BDE8F081022058
:100CC000FBE770B50C4601F00F05C5EBC50100EB65
:100CD0008101C1F81032C1F808220023C1F8143292
:100CE00081F8FD3181F8FC51036901F5FE71012B9A
:100CF00000D10A612207027C006803D003F08EFD58
:100D0000002070BD03F07AFCFAE770B504460D468A
:100D100001F00F006168884201D9012070BD2906E9
:100D20004FF000064FF0010207D5C0EBC00104EB05
:100D3000810181F83D203C3107E0C5EBC50104EBA2
:100D4000810181F8FD6101F5FE718A70087094F8E7
:100D5000BC03012807D084F8BC23206803F032FDCF
:100D6000280702D007E0022070BD217C04F57172D3
:100D7000206803F0CFFC84F8BC63002070BD70B520
:100D80000C4601F00F05C5EBC50100EB81010B65B9
:100D90008A6400234B65012381F83D3001F83C5FF4
:100DA0000369012B00D10A612207027C006803D08D
:100DB00003F034FD002070BD03F020FCFAE70000D2
:100DC0002DE9FC5F05680446284603F050FE002824
:100DD0007ED1206803F077FE002879D0206803F0E8
:100DE00072FE800704D52168486900F0020048615E
:100DF000206803F068FEC10604F57170009034D5D8
:100E00002068816921F0100181612F6A07F00F00CD
:100E1000C0EBC00004EB8006C7F3434006F5FE7646
:100E2000022802D0062811D01AE047F6F0700742D7
:100E300016D0C7F30A1217462846F16803F047FE9A
:100E4000F0683844F060B069384408E00822284669
:100E5000009903F03CFEB069C7F30A110844B06181
:100E60002068816941F010018161206803F02BFE48
:100E700000034FF0010A4FF0080B5BD500262068F5
:100E800003F000FE0746DFF8689351E0F8074DD005
:100E9000F1B2206803F00FFE8046C00707D005EBD3
:100EA0004611C1F808AB3146204601F023FC5FEA49
:100EB000087022D505EB4611C1F808BB2068016C0B
:100EC00000EB46100191D0F8082B494507D900E006
:100ED0008BE1110403D54FF40041C0F8081B2046F4
:100EE00000F076FA0198484507D92069012804D115
:100EF00020680121009A03F00DFC5FEAC86004D568
:100F000005EB46111020C1F8080B5FEA886004D594
:100F100005EB46112020C1F8080B5FEA884005D593
:100F200005EB46104FF40051C0F8081B7F08761CF3
:100F3000002FABD1206803F0C6FD40034FF000093D
:100F40005CD5206803F097FD0746002654E0F807BB
:100F500050D0F1B2206803F09CFD8046C00723D03A
:100F600006F00F020AFA02F0D5F834288243C5F8D9
:100F7000342805EB4610C0F808A9206901280FD1D4
:100F8000C6EBC60004EB8000D0E911211144816456
:100F900036B9206D20B920680121009A03F0BAFB10
:100FA000F1B22046FFF7CFFD5FEA087003D505EBED
:100FB0004611C1F808B95FEAC86004D505EB4611CF
:100FC0001020C1F808095FEA486004D505EB461116
:100FD0004020C1F808095FEA887004D505EB461186
:100FE0000220C1F808095FEA086003D531462046AF
:100FF00001F0E6FB7F08761C002FA8D1206803F0E3
:1010000062FD002811DAD5F8040820F00100C5F8C7
:10101000040894F8F403012829D0204600F0BCF914
:101020002068416901F000414161206803F04BFDF7
:1010300000050BD5D5F80808C00702D0204600F0FF
:10104000EFF92068416901F400614161206803F013
:101050003AFDC00468D5D5F8040820F00100C5F8B1
:1010600004081021206803F0E3FC002127E084F845
:10107000F49300212046FFF73BFDD1E705EB41103B
:101080004FF67F32C0F80829D0F8003923F4001356
:10109000C0F80039D0F8003943F00063C0F80039D7
:1010A000C0F8082BD0F8002B22F40012C0F8002B57
:1010B000D0F8002B42F00062C0F8002B491C606899
:1010C0008842DBD8D5F81C0840F00110C5F81C0890
:1010D000206B60B1D5F8840840F00B00C5F8840897
:1010E000D5F8440840F00B00C5F844080CE0D5F8EA
:1010F000141842F22B000143C5F81418D5F8100853
:1011000040F00B00C5F81008D5F8000820F4FE6088
:10111000C5F80008217C2068009A03F0FBFA2068DB
:10112000416901F480514161206803F0CCFC8004E6
:1011300015D5206803F0BCF8206803F08BFCE06054
:1011400000F020FA0146227B206803F0F7FC2046DD
:1011500000F00CF92068416901F4005141612068F8
:1011600003F0B1FC000707D5204600F019F920680C
:10117000416901F008014161206803F0A4FCC0024C
:1011800008D50021204600F035F82068416901F4B7
:1011900080114161206803F096FC800208D500218F
:1011A000204600F02BF82068416901F400114161EC
:1011B000206803F088FC400007D52046FFF7BFFCFD
:1011C0002068416901F080414161206803F07BFCA7
:1011D00040070AD520684568680702D52046FFF712
:1011E000C5FC2068416829434160BDE8FC9F0000C0
:1011F0000A30544FD0F8040402F09CBCD0F8040428
:1012000002F09ABC2DE9F0418AB0040005D094F8B0
:10121000BD032668002520B108E001200AB0BDE822
:10122000F08184F8BC53204600F05EF8032084F877
:10123000BD03F06BC00500D42561206803F0D8F928
:1012400004F11001282288466846FEF7EAFF94E878
:101250000F0003F03BF80226C8BB0021206803F012
:1012600044FC002001270EE0C0EBC00104EB81012B
:1012700081F83D7001F83C0FC880CD708D60CD6065
:10128000401CC0B24D6161688142EDD8002011E080
:10129000C0EBC00104EB810181F8FD5181F8FC0134
:1012A00081F8FF51C1F80452C1F80852401CC0B285
:1012B000C1F8105261688142EAD828224146684646
:1012C000FEF7AFFF94E80F0003F0D8F810B184F8F0
:1012D000BD63A2E784F8385084F8BD73206803F03A
:1012E000BFF800209AE7000010B586B0044614212C
:1012F0006846FEF7AFFF2068B0F1A04F2FD1194824
:101300000021026842F001020260006800F0010062
:1013100005904FF4C05000900220CDE90101032058
:1013200003900A20049069460F48FFF75FFA0D48C2
:10133000001D016841F0800101600A481430016815
:1013400041F4804101600068002200F48040059073
:1013500011464320FFF79AFB4320FFF789FB06B0B5
:1013600010BD0000303802400000024070B5044655
:10137000C068012570B1022801D0FFF711FA294693
:10138000D4F8040402F02EFCD4F80404BDE8704044
:1013900002F0E9BB0025F2E7D0F8040402F00CBC2F
:1013A000D0F8040402F012BC10B5044690F8BC0357
:1013B00001280BD0012084F8BC0384F83810206881
:1013C00003F0AAFB002084F8BC0310BD022010BD6E
:1013D000D0F8042400F57171104602F00FBC10B56E
:1013E0000446006894F8BC13012906D0012184F852
:1013F000BC13A16A012902D008E0022010BDA16936
:10140000012903D0816B41F480318163206803F0AE
:10141000F9FA206803F016F8002084F8BC0310BD28
:1014200010B50446D0F8040402F02AFC2068D0F875
:10143000001E41F00101C0F8001E206A002804D0FF
:101440000248016841F00601016010BD10ED00E0A6
:101450002DE9F0470E46050065D0DFF81481D8F875
:101460000000F7B200F00F00B04207D288F8007019
:10147000D8F8000000F00F00B04254D128683D4C6D
:10148000810712D5400703D5206840F4E050206062
:101490002878000703D5206840F460402060206869
:1014A000A96820F0F000084320602878C0072DD0FC
:1014B000304968680839012812D0022813D003285F
:1014C00011D00968890700292DDA216821F003016C
:1014D00001432160FFF76CFA814641F2883A0EE041
:1014E00009688903EFE709688901ECE7FFF760FA0B
:1014F000A0EB0901514502D90320BDE8F08720681F
:10150000696800F00C00B0EB810FEFD1D8F8001043
:10151000404601F00F01B14207D90770006800F0A2
:101520000F00B04201D00120E7E72878400705D539
:101530002068E96820F4E05008432060287800071C
:1015400006D52068296920F4604040EAC100206087
:1015500000F03EF82168084AC1F30311515CC8400D
:101560000649086006480068FFF74AFA0020C4E709
:10157000003C024008380240B7780008F000002024
:10158000E80000200148006870470000F0000020DB
:101590000448054900680968044AC1F38221515C86
:1015A000C8407047F000002008380240C7780008A3
:1015B0000448054900680968044AC1F34231515C96
:1015C000C8407047F000002008380240C778000883
:1015D000154810B5006810F00C02144813D04110E3
:1015E000042A0FD0082A0ED10F4C241F226823682A
:1015F00002F03F025B0207D52068C0F38810A0FB11
:10160000010106E0084610BD2168C1F38811A1FB65
:1016100000010023FEF7D4FD2168C1F30141491CFC
:101620004900B0FBF1F010BD083802400024F4007E
:101630002DE9F84F04006ED02078DFF83C93C00706
:10164000A9F104054AD009F104000168C1F3810140
:10165000012908D00068C0F3810002280AD1D9F816
:101660000000400206D52868800337D5606800284E
:10167000E1D033E06068B0F5803F10D0B0F5A02F26
:10168000286810D020F480302860286820F480205A
:1016900028606068A8B1FFF78BF906460DE028685E
:1016A00040F48030F4E740F480202860F7E700BF82
:1016B000FFF77EF9801B642873D828688003F7D56C
:1016C0000CE0FFF775F9064605E000BFFFF770F97B
:1016D000801B6428F0D828688003F7D42078DFF8CE
:1016E0009C8280074FF0000A3ED5A348001D016888
:1016F00011F00C0F08D00068C0F3810002280BD154
:10170000D9F80000400207D42868800716D5E068A1
:10171000012800D112E02BE1E068B8B10120C8F83F
:101720000000FFF745F9064605E000BFFFF740F966
:10173000801B0228C0D828688007F7D5286821694F
:1017400020F0F80040EAC10028600DE0C8F800A0D1
:10175000FFF72EF9064604E0FFF72AF9801B02285E
:101760001FD828688007F7D42078000722D5824E3A
:1017700083486169703671B101210160FFF718F982
:10178000074604E0FFF714F9C01B022809D83068A7
:101790008007F7D50EE0C0F800A0FFF709F907466B
:1017A00005E082E0FFF704F9C01B02287DD830680D
:1017B0008007F7D42078400768D5DFF8BCB1002750
:1017C0000BF13C0BDBF80000C0000BD4DBF8001081
:1017D00041F08051CBF80010DBF80000012700F049
:1017E00080500090674E3068C00510D4306840F4D7
:1017F00080703060FFF7DCF8009005E0FFF7D8F864
:101800000099401A022850D83068C005F6D55A4EC3
:10181000A0686C3601280FD00528306810D020F061
:1018200001003060306820F004003060A068B8B17A
:10183000FFF7BEF800900FE0306840F00100F4E7D9
:1018400040F004003060F7E7FFF7B2F80099411A62
:1018500041F28830814266D830688007F4D50EE0C6
:10186000FFF7A6F8009007E0FFF7A2F80099411AE9
:1018700041F28830814256D830688007F4D42FB1C5
:10188000DBF8001021F08051CBF80010A069C8B33C
:101890003949091D0968C1F3810102294AD002288A
:1018A000504607D0C8F8600000E03CE0FFF780F841
:1018B00004463BE04746C8F86000FFF779F8064663
:1018C00005E000BFFFF774F8801B02282BD82868BA
:1018D0008001F7D4D4E907010843A16A2A4A4908DC
:1018E00002EB0141626A41EA8211084394F82C102C
:1018F00040EA0161C9F8001001203866FFF758F886
:10190000044606E036E000BFFFF752F8001B02284D
:1019100009D828688001F7D52CE000BFFFF748F808
:10192000001B022802D90320BDE8F88F2868800137
:10193000F4D41FE00128F7D0D9F80000E26900F4E0
:101940008001914214D1226A00F03F0191420FD1EF
:1019500047F6C071626A0140914209D1A26A00F45F
:101960004031914204D1E16A00F07060884201D0B8
:101970000120D9E70020D7E70438024000004742A1
:10198000800E4742007000400000FFFF704790F853
:101990005100704738B5016804464A688868C043FA
:1019A000430606D5C30704D1D3435B0601D4216C9B
:1019B00005E0830708D4D3431B0605D4616C01B04E
:1019C0002046BDE830400847830603D5430601D5CD
:1019D000C30551D4D3439B064ED443060AD494F88E
:1019E0005130032B49D0636D43F004036365CB682A
:1019F0008B680093830609D4636D43F0010363652C
:101A00008B6800930B6823F040030B60C00506D47D
:101A1000606D40F008006065206880680090606D2F
:101A2000002829D02068416821F0E00141600120B0
:101A300084F85100900701D4D00722D02068416873
:101A400021F003014160114DE06C40B10565E06C8F
:101A5000FEF7A7FE18B1606D40F040006065A06C15
:101A6000002809D00565A06CFEF79BFE002803D076
:101A7000606D40F04000606538BDC86888680090BF
:101A800038BD2046FFF782FF38BD0000E530000872
:101A900070B5040005D00025A56294F8510010B17E
:101AA00006E0012070BD84F85050204600F030F868
:101AB000022084F851002068016821F04001016093
:101AC000D4E901010843D4E90312114308436169D1
:101AD0000843218B01F400710843E1690843216A3E
:101AE0000843A16A084321680860A069042101EA4B
:101AF0001040616A0843216848602068C16921F488
:101B00000061C1616565012084F85100002070BD4D
:101B100010B586B0044614216846FEF79BFB1749B2
:101B20002068884228D116480021026842F4805279
:101B30000260006800F48050059011481438026873
:101B400042F002020260006800F0020005903820B6
:101B500000900220CDE901010320039005200490AC
:101B600069460848FEF742FE002211462320FEF790
:101B70008DFF2320FEF77CFF06B010BD0030014032
:101B800044380240000402402DE9F84F0446406802
:101B90000025984616460F464FF0040BB0F5827F9D
:101BA00001D1A06888B194F85000012818D0012014
:101BB00084F85000FEF7FCFE814694F851004FF087
:101BC000000A01280ED002257DE084F851B01346AA
:101BD0000A462046CDF8008000F02CF9BDE8F88FC9
:101BE0000220FBE7002F6DD0002E6BD084F851B09F
:101BF000C4F854A0A763A687E687C4F830A0A4F869
:101C000034A0A4F836A0C4F840A0C4F844A0A0684A
:101C1000B0F5004F04D12068016821F480410160D3
:101C200020680168490603D4016841F04001016061
:101C3000E068D8B139E020688168C90709D0007B25
:101C4000A16B0870A06B401CA063E08F401EE08772
:101C50000CE0FEF7ADFEA0EB0901414503D3B8F15E
:101C6000FF3F03D036E0B8F1000F33D0E08F0028FB
:101C7000E1D11DE020688168C90709D0C068A16B67
:101C80000880A06B801CA063E08F401EE0870CE002
:101C9000FEF78EFEA0EB0901414503D3B8F1FF3FEB
:101CA00003D017E0B8F1000F14D0E08F0028E1D185
:101CB0004A464146204601F01DFA08B120206065E1
:101CC000606D00B10125012084F8510084F850A016
:101CD000284683E70325F6E72DE9F84F044690F8F8
:101CE000500000271D461646894601280DD04FF0AA
:101CF000010B84F850B0FEF75BFE804694F851006B
:101D0000BA46012804D002278EE00220BDE8F88FF1
:101D1000B9F1000F7DD0002E7BD0032084F8510054
:101D2000C4F854A0C4F83090A686E686C4F838A05B
:101D3000A4F83CA0A4F83EA0C4F844A0C4F840A075
:101D4000A068B0F5004F04D12068016841F48041DB
:101D5000016020680168490603D4016841F0400130
:101D60000160E068B0F5006F606803D030B3012E09
:101D700024D040E008B1012E1CD1206B21680088DE
:101D8000C86006E020688168890709D5216B098849
:101D9000C160206B801C2063E08E401EE08609E05D
:101DA000FEF706FEA0EB0800A84202D3681C01D093
:101DB00031E07DB3E08E0028E4D11FE0206B216884
:101DC0000078087306E020688168890709D5216BCF
:101DD00009780173206B401C2063E08E401EE08672
:101DE00009E0FEF7E5FDA0EB0800A84202D3681C5D
:101DF00001D010E075B1E08E0028E4D142462946BA
:101E0000204601F0A5F908B120206065A06820B146
:101E100007E008E0FFE7032706E02068C168806864
:101E20000090606D00B1012784F851B084F850A093
:101E300038466BE72DE9F84F044690F8500000272C
:101E40000A9E1D4692468B464FF0010901280ED08E
:101E5000012084F85000FEF7ABFD804694F8510055
:101E6000616801280CD0B1F5827F07D102E0022021
:101E7000BDE8F88FA16809B9042801D00227C2E0A3
:101E8000BBF1000F27D0BAF1000F24D01DB394F896
:101E90005100042802D0052084F85100002060651C
:101EA000C4F838A0E587A587C4F830B0E586A586D4
:101EB0002064606420680168490603D4016841F029
:101EC00040010160E068B0F5006F606805D0E8B3DC
:101ED000012D46D07FE0012795E008B1012D39D1D1
:101EE000206B21680088C860206B801C2063E08E16
:101EF000401EE0862EE02068816889070FD5E18EBC
:101F000069B1B9F1010F0AD1216B0988C160206B59
:101F1000801C2063E08E401EE0864FF000092068A0
:101F20008168C9070CD0E18F51B1C068A16B0880EE
:101F3000A06B801CA063E08F401EE0874FF001097A
:101F4000FEF736FDA0EB0800B04200E009E001D347
:101F5000701C50D1E08E0028CDD1E08F0028CAD16E
:101F60003FE0206B216800780873206B401C2063E1
:101F7000E08E401EE0862EE02068816889070FD53C
:101F8000E18E69B1B9F1010F0AD1216B09780173B2
:101F9000206B401C2063E08E401EE0864FF000095D
:101FA00020688168C9070CD0E18F51B1C068A16B6E
:101FB0000870A06B401CA063E08F401EE0874FF0CC
:101FC0000109FEF7F5FCA0EB0800B04202D3701C3B
:101FD00001D010E07EB1E08E0028CDD1E08F002846
:101FE000CAD142463146204601F0B2F828B1012755
:101FF0002020606507E0032705E0A06818B9206885
:10200000C16880680090012084F85100002084F8A5
:10201000500038462CE710B5401EB0F1807F01D348
:10202000012010BD4FF0E02460610F21601702F025
:1020300033FE0020A06107202061002010BD704702
:1020400070B5026804461068D168536910F00F0F2C
:1020500052D003F0010501F490762E435FD0C20701
:1020600005D0CA0503D5E26B42F00102E2634207E4
:1020700005D5DA0703D0E26B42F00202E263820781
:1020800005D5DA0703D0E26B42F00402E2630207EF
:1020900007D501F020022A4303D0E26B42F0080288
:1020A000E263E26B002A33D0800604D5880602D5AD
:1020B000204601F087F920684069E16BC0F3801089
:1020C000090700D428B3204601F06EF92068416961
:1020D00049061AD5416921F040014161606BA0B108
:1020E0001B490165606BFEF75CFB002810D0606B3C
:1020F000016DBDE870400847830610D58B060ED5EC
:102100002046BDE8704001F05DB92046FFF797FF1B
:1021100070BD2046FFF793FF0020E06370BD03060B
:1021200006D50B0604D52046BDE8704001F02ABA5A
:102130004006F3D54806F1D5D168204621F040018C
:10214000D160202184F8391000F0D2F870BD000071
:102150009933000870B5040004D094F839000025C4
:1021600010B106E0012070BD84F83850204600F020
:1021700023F8242084F839002068C16821F4005134
:10218000C160204601F06AF92068016921F490419C
:1021900001612068416921F02A0141612068C1681C
:1021A00041F40051C160E563202084F8390084F8CF
:1021B0003A00002070BD000010B586B0044614211E
:1021C0006846FEF747F818492068884229D1174821
:1021D0000021026842F010020260006800F0100066
:1021E000059012481438026842F00102026000684B
:1021F00000F0010005904FF4C06000900220CDE98E
:102200000101032003900720049069460848FEF767
:10221000EDFA002211462520FEF738FC2520FEF7B6
:1022200027FC06B010BD00000010014044380240F9
:102230000000024070472DE9F843044690F8390049
:102240001F4616460D46202850D1B5B1AEB194F8C0
:10225000380001284AD0012084F838004FF00008E7
:10226000C4F83C80212084F83900FEF7A1FBA68445
:102270008146E68484F8388026E00120BDE8F883B2
:10228000E08C401EE084A0684B46B0F5805F4FF0C4
:1022900000024FF080012046009703D001F0A3F91F
:1022A000E8B90DE001F09FF9C8B928882168C0F3AA
:1022B00008004860206908B16D1C05E0AD1C03E012
:1022C000216815F8010B4860E08C0028D8D14B46F6
:1022D000002240212046009701F085F908B1032033
:1022E000CCE7202084F839000020C7E70220C5E7AA
:1022F0007047FEE7F0B500230A24302537261F4635
:1023000011E000BFB4EB107F02D905EB107C01E0B7
:1023100006EB107C01F813C001EB430C00015B1CC1
:102320008CF80170DBB29342ECD3F0BD70B5D0F8FD
:10233000BC42054604F58051087F38B9886928B148
:10234000607A18B90121284601F088FC81212846CD
:1023500001F084FC607A022809D18121284601F02D
:102360007DFC2846BDE87040012101F077BC70BDBE
:1023700070B5D0F8BC42064604F580550121686965
:102380006863A869A863304601F090FB1F280AD152
:1023900026492869884206D1697F012903D8A87F88
:1023A00008B1102808D9697F20230522304600F0A3
:1023B0009DFD022060720AE041F21F0022183046A3
:1023C00000F09AFA0028207A08DA052804D030466E
:1023D000BDE87040FFF7AABF012120E0022823D00A
:1023E000012821D003281FD0E568BDB104F11002F7
:1023F000D6F8BC42304604F580518B69AB4200D31D
:102400002B468E6B751B8D63002581F83C50042193
:102410002172BDE87040812101F03BBC00213046B3
:10242000BDE8704000F0A0B870BD000055534243B5
:1024300010B50446D0F8BC02407A022809D009063B
:1024400011D501280FD02046BDE81040012100F031
:102450008BB88121204601F001FC2046BDE81040E8
:10246000012101F0FBBB10BD10B5D0F8BC22044621
:10247000107A022805D0032801D0042811D10021A8
:102480000AE041F21D00815C801C0244204600F0FD
:1024900033FA002805DA01212046BDE8104000F09B
:1024A00063B810BD10B5D0F8BC220446107A88B1CC
:1024B000012814D141F21D00815C801C0244204699
:1024C00000F01AFA00280ADA2046BDE8104001217F
:1024D00000F04AB82046BDE81040FFF749BF10BDE4
:1024E000D0F8BC0200210172704770B5D0F8BC4230
:1024F00005460020207204F58051607281F8610069
:1025000001F8600F8870D5F8C00201680020884784
:102510000121284601F0C1FA8121284601F0BDFAC7
:1025200041F2100022182846BDE870401F23012107
:1025300001F010BB70B5D0F8BC42054600202072F7
:10254000012060728121284601F0FBF90121284613
:1025500001F0F7F941F2100022182846BDE870405A
:102560001F23012101F0F6BA70B5D0F8BC42054630
:1025700004F580520B48106382F83C100020207252
:1025800041F2300022180D238121284601F081FB01
:1025900041F2100022182846BDE870401F23012197
:1025A00001F0D8BA5553425330B587B0142168466C
:1025B000FDF750FE15480024016841F080010160DC
:1025C000016801F080010591016841F0020101609C
:1025D000016801F002010591016841F0010101600B
:1025E00000680B4D00F001000590002201212846F3
:1025F000FEF7D8F901210091CDE90114694628467A
:102600000394FEF7F3F807B030BD00003038024005
:10261000000402400F4810B50D4901604FF482716B
:10262000416000218160C1604FF400720161C0E926
:102630000512C1610162416281620A21C162FFF734
:1026400027FA002803D0BDE81040FEF7A9B810BD56
:1026500000300140F00300200C4810B50A49016029
:102660004FF4E1314160002181600C22C160C0E97A
:1026700004128161C161FFF76DFD002803D0BDE840
:102680001040FEF78DB810BD001001404804002036
:1026900010B500220F49104801F039F908B1FEF7D2
:1026A0007FF80E490C4801F0EDFB08B1FEF778F811
:1026B0000B49094801F063FB08B1FEF771F80648C1
:1026C00001F05AFC002803D0BDE81040FEF768B8BE
:1026D00010BD00007400002088040020F8000020D5
:1026E000C4000020FEE770470148FEF769BB000008
:1026F000582900202DE9F04103680D4604461E6C60
:1027000003EB4511D1F8080BD4F810E04FF4004763
:102710004FF0200C04F57172BEF1010F09D0DFF803
:1027200098E0764539D1020432D500BFC1F8087B64
:102730003FE0224B5FEA007E04D59E4239D9000477
:10274000F4D436E05FEA806E02D5C1F808CB30E001
:1027500010F0280F2DD19E4201D90004E6D4C5EB1C
:10276000C50004EB8000D1F8101BD0F80432C1F38F
:102770001201591AC0F81412D0F808121944C0F8FE
:10278000081295B9D4F8100278B9012120680AE03E
:1027900080060AD5C1F808CB07E035B9D4F8100295
:1027A00018B90021184601F0B5FFE9B22046FEF73E
:1027B000D3F90020BDE8F0810A31544F0A30544F5C
:1027C0002DE9F84F0E46C1EBC60100EB81048146AE
:1027D0000568D4E914103C34884202D90120BDE8D0
:1027E000F88F081AA168814200D20846C01C8708E9
:1027F00005EB46181BE000BFA0EB010AA06850459E
:1028000000D282460AF10300870899F81000009070
:102810001FFA8AF3F2B22846E16802F003FAE1688F
:1028200001EB0A00E060A16901EB0A00A061D8F8A1
:10283000180980B2B84205D3D4E90501814201D21A
:102840000028D9D1D4E90501884208D806F00F0143
:1028500001208840D5F834188143C5F83418002089
:10286000BDE7704710B5D0F8BC421A4404F5805457
:10287000A36E9A4206D92123052200F037FB4FF0C0
:10288000FF3010BD002010BD70B50546D0F8BC0269
:10289000134600F580524FF0FF34966976B15E78AA
:1028A000F60714D0997861B180290DD0517F242387
:1028B0000522284600F01AFB204670BD517F2023D8
:1028C000F6E706220A490FE008220A490CE0D5F88B
:1028D000C02201EBC1011B79D26902EB81010A79A7
:1028E000521D934200D81A4600F029FB002070BD0B
:1028F0009A010020A00100202DE9F047137800255F
:10290000D0F8BC424FF0FF364FF00208252B74D0B0
:102910000FDC1A2B77D005DC13B3032B42D0122B1C
:1029200017D143E01B2B45D01E2B5FD0232B10D19A
:1029300084E05A2B76D006DC282B6ED02A2B6DD063
:102940002F2B06D196E09E2B69D0A82B68D0AA2BFE
:1029500067D02023052200F0C9FA84F809801EE020
:10296000074604F580508846816921B1417F2023C4
:102970000522384683E090F862004FF005090228EE
:1029800005D0D7F8C00281684046884738B33A235B
:1029900002224146384600F0A9FA84F808903046F1
:1029A000BDE8F087BDE8F04700F064BABDE8F04745
:1029B000FFF76ABF04F5805393F86270012F04D1CA
:1029C000177907F00307022F57D0117901F00300A0
:1029D000012808D0022803D0C843800703D05AE05A
:1029E00083F8628057E083F8625054E0107930B188
:1029F00041F26200012101554DE023E003E041F284
:102A00006200055547E0127917212046172A00D8A1
:102A100011460A4621490DE004E01BE022E015E0E2
:102A20001CE023E0127A1B2120461B2A00D8114605
:102A30000A461B4900F083FA2846B1E7BDE8F04793
:102A400000F0E0B9BDE8F04700F05EB9BDE8F0473E
:102A500000F08CB9BDE8F04700F0B3B8BDE8F0472E
:102A600000F0FFB8BDE8F04700F075BABDE8F047E8
:102A700000F0CDBA5278920704D52423052200F045
:102A800035FA8CE7A4F6947202F500520CCAFFF7EF
:102A9000E9FE002883DBE560CEE70000A801002006
:102AA000BF0100202DE9F047D0F8BC62074606F5CB
:102AB00080548846B4F86400256F4FF48051454334
:102AC0008D4200D30D46B5FBF0F083B2D7F8C002BB
:102AD00006F11001E26ED0F810C089464046E0478A
:102AE000002809DA112304224146384600F0FEF995
:102AF0004FF0FF30BDE8F0872B464A46812138462B
:102B000001F0C7F8B4F86400E26EB5FBF0F1B5FB74
:102B1000F0F01144E166216F081A2067A16BA1EB68
:102B20000501A16301D1032030720020E2E72DE905
:102B3000F0478846D0F8BC12064601F580544FF4A1
:102B40008057B4F86400256F4543BD4200D33D462D
:102B5000B5FBF0F083B2D6F8C0021031E26ED0F8C7
:102B600014C089464046E047002809DA03230422BE
:102B70004146304600F0BAF94FF0FF30BDE8F0872B
:102B8000B4F86400E26EB5FBF0F11144E166B5FB08
:102B9000F0F1226F531A2367A16BA1EB0501A1632A
:102BA0000AD04343BB4200D33B464A46012130464C
:102BB00000F0D0FF0020E1E700213046FFF7D4FC11
:102BC000F8E72DE9F047D0F8BC5207461646287AB8
:102BD000894678BB05F580544FF0FF38207F00060A
:102BE00030D594F86200022809D0D7F8C002816875
:102BF0004846884748B13A230222494601E03A2331
:102C00000222384600F072F911E0D6F80200494677
:102C100000BA20F0FF0270790243E266B6F80700BE
:102C200043BA38462367FFF71DFE002803DA404603
:102C3000BDE8F0870CE0B4F86410206F4843A16948
:102C4000884203D02023617F0522DAE70220287220
:102C50004FF48050E86049463846BDE8F047FFF73A
:102C600021BF2DE9F047D0F8BC5207461646287A16
:102C7000894690BB05F580544FF0FF38207F000651
:102C800033D594F86200022809D0D7F8C0028168D1
:102C90004846884748B13A230222494601E03A2390
:102CA0000222384600F022F914E056F8020F494695
:102CB00000BA20F0FF02F0780243E266706800BAC2
:102CC00020F0FF03F079034338462367FFF7CAFD7E
:102CD000002803DA4046BDE8F0870CE0B4F8641041
:102CE000206F4843A169884203D02023617F0522D9
:102CF000D7E7022028724FF48050E86049463846F2
:102D0000BDE8F047FFF7CEBE70B505460E46D5E9E3
:102D1000AF40436841F264002218001D211830467C
:102D20009847D0B904F5805292F86200022814D076
:102D3000906E401E010E2174010C6174010AA17491
:102D4000E074002020756075B2F86400010AA17576
:102D5000E0750820E060002070BD3A230222314671
:102D6000284600F0C3F84FF0FF3070BD2DE9F04168
:102D700006461546D6E9AF400F46436841F2640067
:102D80002218001D21183846984780B904F5805252
:102D900092F8620002280AD0D5F80A00697B00BACE
:102DA00020F0FF000843E060002001460DE03A23D8
:102DB00002223946304600F099F84FF0FF30BDE866
:102DC000F0812318401C1974C0B2E3688342F8D81C
:102DD000906E401E030E2375030C6375030AA375E2
:102DE000E07521766176B2F86400010AA176E0769A
:102DF000D5F80A00697B00BA20F0FF000843E060C4
:102E00000020DCE77CB505460E46D5E9AF406A46B2
:102E1000436801A93046984718BB41F26200005D43
:102E200002281ED0002001462218401C80B21174D6
:102E30000C28F9D30820E0740198401E020E227578
:102E4000020C6275020AA275E07502202076617696
:102E5000BDF80000010AA176E0760C20E0600020B9
:102E60007CBD3A2302223146284600F03FF84FF05D
:102E7000FF307CBD70B5D0F8BC1201F580539C6961
:102E800014B3002005460C18401CC0B2257412284B
:102E9000F9D3702008740C20C87593F8600093F87B
:102EA0006140A0421AD001EBC00404F58254401CDA
:102EB00026788E7426790E776479C0B24C7783F8C1
:102EC0006000042808D009E0597F2023052200F083
:102ED0000DF84FF0FF3070BD83F860501220C860CD
:102EE0001079122800D8C860002070BD10B5D0F845
:102EF000BC1201F5805090F8614001EBC40404F568
:102F0000805484F8402090F8612001EBC20202F561
:102F1000805282F8443090F86130002201EBC30106
:102F200001F5805181F8452090F86110491CC9B223
:102F300080F86110042901D180F8612010BD10B51E
:102F4000C26004E0521E92B284188B5C2374002A83
:102F5000F8D1002010BD2DE9F047D0F8BC5206464C
:102F60001746287A894620B13046BDE8F047FFF77A
:102F7000DEBD05F580544FF0FF38A069A0B3207F77
:102F8000000631D4D6F8C00281684846884728B187
:102F90003A230AE03046FFF7A9FF1BE0D6F8C0024B
:102FA000C1684846884718B1272302224946F1E7FD
:102FB000D7F80200494600BA20F0FF0278790243B0
:102FC000E266B7F8070043BA30462367FFF74AFCCA
:102FD000002802DA4046BDE8F087B4F86400236FA9
:102FE0004343A069984203D02023617F0522D1E7A3
:102FF0004FF48050834200D30346012028720146DB
:1030000005F11002304600F0A5FD0020E3E72DE9B0
:10301000F047D0F8BC5207461646287A8A4620B1B7
:103020003846BDE8F047FFF782BD05F580544FF004
:10303000FF39A06910B1207F000606D5617F2023EB
:1030400005223846FFF752FF2DE0D7F8C00281680D
:10305000504688474FF0050808B13A2306E0D7F8F4
:10306000C002C1685046884740B12723022251461A
:103070003846FFF73BFF85F8088014E056F8020F4A
:10308000514600BA20F0FF02F0780243E266706811
:1030900000BA20F0FF03F079034338462367FFF7B7
:1030A000E1FB002802DA4846BDE8F087B4F8640086
:1030B000236F4343A0699842C0D14FF480508342AC
:1030C00000D3034601202872014605F1100238465C
:1030D00000F040FD0020E7E70148FEF75BBC000080
:1030E000F003002010B5806B0021C187C186FEF778
:1030F0004DFC10BDF8B5044640684FF48273984209
:1031000021D1A0684FF48065B0F5004F01D0A842EE
:103110000AD12068066826F040060660606898427A
:1031200011D1A068A8420ED000920B460022802147
:10313000204600F039F8002804D0606D40F02000EF
:1031400060650320F8BD00920B4600220121EFE7E5
:1031500038B504461248134B0068B0FBF3F04FF447
:103160007A73584300906068B0F5827F0DD10B46AA
:10317000009200228021204600F016F870B1606DA8
:1031800040F020006065032038BD009830B1401E3B
:10319000009020688068C0430006F6D5002038BD46
:1031A000F000002000366E012DE9F0411D46174663
:1031B0000E460446DDF8188008E0681C06D0FDF7CE
:1031C000F7FBA0EB0800A8420BD255B1206880683D
:1031D00036EA000030D00020B842EED10020BDE831
:1031E000F0812068416821F0E00141606068B0F53D
:1031F000827F0BD1A068B0F5004F02D0B0F5806F90
:1032000004D12068016821F040010160A06AB0F596
:10321000005F09D12068016821F400510160206835
:10322000016841F400510160012084F85100002040
:1032300084F850000320D2E70120CDE74FF48050FE
:103240000860C010108000207047002070470020E8
:103250007047002070470020704700002DE9F041C2
:103260001D4614460F4603F0EBFD6E0261020B4B48
:10327000324603F06DFE0024084803E0015DC943B7
:103280000155641CB4EB452FF8D332460349384648
:10329000FCF7C7FF0020BDE8F081000058090020BE
:1032A0002DE9F0411C4616460F4603F0C9FD804645
:1032B00065022A4639460B48FCF7B3FF002009494E
:1032C00003E00A5CD2430A54401CB0EB442FF8D30D
:1032D0007102044B2A46404603F09EFD0020BDE8E3
:1032E000F08100005809002070470178407841EAD9
:1032F00000207047FDF762BB30B593B030216846BF
:10330000FCF7A8FF14210CA8FCF7A4FF194800251E
:10331000016841F080510160006800F08050119018
:103320001548016841F4804101600068022400F4FE
:103330008040119001200090000401908001CDE9AF
:10334000064004200890A820CDE9090407200B902E
:103350006846FEF76DF90CA90F2081E831004FF4A3
:10336000A0500F90E002109005210CA8FEF770F815
:1033700013B030BD4038024000700040054801687D
:1033800041F47001016003494FF00060803908602A
:103390007047000088ED00E010B5806B0021C1850A
:1033A000C184FEF74CFE10BD0168CA6822F4907219
:1033B000CA6001684A6922F001024A61202180F84E
:1033C0003A10704710B590F83A10222901D0022027
:1033D00010BD8168B1F5805F11D0016900290168D5
:1033E0001FD0496801F07F03816A4A1C82620B701A
:1033F000C18D491E0904090CC18518D02BE0026952
:10340000816A002A0268526805D0D2B20A80816AB5
:10341000491C8162ECE7C2F308020A80816A891CB8
:10342000F7E74A68816A4B1C83620A70E0E701682B
:10343000CA6822F02002CA600168CA6822F4807259
:10344000CA6001684A6922F001024A61202180F8BD
:103450003A10FEF7EFFE002010BD00002DE9F0410C
:10346000044600680169E26821F44051114301619A
:103470002169A068E2690843616911430843216832
:10348000CA6849F20C639A430243CA6020684169E2
:10349000A26921F4407111434161E0691927642553
:1034A0003226B0F5004F354A354920684FF0000804
:1034B00006D0884201D0904236D1FEF779F835E047
:1034C000884201D0904202D1FEF772F801E0FEF787
:1034D0005FF861684A18A0FB070148EB0803FCF796
:1034E0006FFE0146B0FBF5F00201B1FBF5F06FF0A5
:1034F0001803584301EB800006EBC000B0FBF5F069
:1035000000F0F80002EB4002B1FBF5F0584301EB8C
:10351000800006EBC000B0FBF5F000F0070021686A
:1035200010448860BDE8F081FEF732F861688B0FC7
:103530008A00A0FB0701FCF743FE0146B0FBF5F053
:103540006FF01802504301EB800006EB0010B0FB57
:10355000F5F000F0F002B1FBF5F002EB0012B1FB68
:10356000F5F06FF01803584301EB800006EB0010F4
:10357000B0FBF5F000F00F00D1E7000000140140AF
:103580000010014090F83910212901D00220704725
:103590008168B1F5805F016A0BD04A1C0262026843
:1035A00009785160C18C491E0904090CC1840ED0F0
:1035B00017E009880268C1F3080151600169002918
:1035C000016A02D0491C0162ECE7891CFBE7016833
:1035D000CA6822F08002CA600068C16841F04001F8
:1035E000C160002070472DE9F041984617460E460D
:1035F0000446069D1DE0681C1BD02DB1FDF7D8F9CF
:10360000A0EB0800A84214D92068C16821F4D07149
:10361000C1602068416921F001014161202084F8E6
:10362000390084F83A00002084F838000320BDE80F
:10363000F0812068006836EA000004D00020B8421B
:10364000D9D00020F3E70120F9E700000148FEF798
:10365000F7BC00004804002010B5D0F8B8220AB129
:1036600052689047002010BD134610B50A4600214D
:1036700000F070FA002010BD134610B50A46002174
:1036800000F007FB002010BD10B50446802100F0BB
:10369000E5FA2046BDE81040002100F0DFBA10B581
:1036A00005210023C0F894121A46194600F052FA78
:1036B000002010BD10B502238261C0F89432C261AF
:1036C00013460A46002100F0E4FA002010BD10B5B0
:1036D00004210023C0F894121A46194600F0D9FAC2
:1036E000002010BD10B50A46024903A000F0DFF823
:1036F000004810BD580700204D534320436F6E66AD
:10370000696700001220088000487047940000207C
:1037100010B50A46024903A000F0C9F8004810BDE0
:10372000580700204D534320496E746572666163EB
:1037300065000000042008800048704790000020C9
:1037400010B50A46024903A000F0B1F8004810BDC8
:103750005807002053544D6963726F656C6563743C
:10376000726F6E696373000010B50A46024903A0C8
:1037700000F09DF8004810BD5807002053544D3309
:1037800032204D6173732053746F7261676500005E
:1037900010B51A2008800A480168001D0468001D41
:1037A0000068081809D008220649FEF7A3FD05495C
:1037B000042210312046FEF79DFD0248801E10BDF8
:1037C000107AFF1FAA000020F8B504460020ADF8CB
:1037D000000048880D46010A08295FD2DFE801F0A1
:1037E0005E0409175E5E3C45D4F8B412207C0A687A
:1037F00019E0207C02260028D4F8B80205D0C16A5E
:10380000684688470146467039E0816AF8E7C0B2E9
:10381000062843D2DFE800F0030A1014181CD4F87D
:10382000B402426805E0694690471CE0D4F8B4024F
:10383000826892B3207CF6E7D4F8B402C268F8E755
:10384000D4F8B4020269F4E7D4F8B4024269F0E7AC
:10385000D4F8B4028269ECE7207CF0B9D4F8B8025D
:10386000416B68468847014609E0207CA8B9D4F836
:10387000B802016B68468847014607204870EA880D
:103880008AB1BDF8000040B1824200D90246ADF8CD
:1038900000202046FFF70EFFF8BDFFE7294620462F
:1038A000FFF7F2FEF8E72046FFF711FFF4E770B5E7
:1038B000002300281ED00025044602E06D1CEDB256
:1038C000641C2678002EF9D1022404EB45041480F0
:1038D0001278CA545B1C0322CA5400245B1C06E005
:1038E000CA545B1CDAB28C54521CD3B2401C02780E
:1038F000002AF5D170BD01004FF0000004D001296D
:1039000001D0022901D0032070470120704730B454
:10391000A0B1D0F8B84200230CB1C0F8B832D0F84A
:10392000CC420CB1C0F8CC3209B1C0F8B4120121BC
:1039300080F89C12027030BC00F0BCB830BC032090
:10394000704710B5D0F8C402FDF73AF9BDE8104051
:10395000FFF7D1BF10B5D0F8C402FDF70BF9BDE8F1
:103960001040FFF7C8BF70B51646044649B1D4F8F9
:10397000B80242691AB194F89C02032842D003208D
:1039800070BDD4F89412002504F11400022932D13C
:10399000D0E902318B4206D95A1A8260314620465C
:1039A000FFF76AFE0FE0994214D14068884211D3B4
:1039B000D4F8981288420DD2002211462046FFF713
:1039C0005BFEC4F8985200231A461946204600F0C0
:1039D000C1F810E0D4F8B802C16829B194F89C028B
:1039E000032801D1204688478021204600F036F97F
:1039F0002046FFF754FE94F8A002012806D184F86F
:103A0000A05203E0204690470028B9D1002070BDA5
:103A100010B51346044649B1D4F8B80282691AB108
:103A200094F89C02032824D0032010BDD4F89412EB
:103A300004F5AA70032920D1D0E9021291420AD9D3
:103A40008A1A8260C068824200D302461946204624
:103A5000FFF70AFE11E0D4F8B802016929B194F821
:103A60009C02032801D1204688472046FFF72FFEFD
:103A700003E0204690470028D7D1002010BD002049
:103A8000704710B5012180F89C12D0F8B82212B10D
:103A9000526801799047002010BD10B5D0F8C402DB
:103AA000FDF7BCF8BDE81040FFF725BFD0F8C40211
:103AB000FDF7CEB810B5017839BB15490222C1F81F
:103AC0000404C0F8C4124FF0A0400860042048600D
:103AD0000020C1E90320C1E9062008624862C862EB
:103AE00008630846FDF78EFB08B1FCF759FE8021FC
:103AF0000748FCF7FEFF402200210548FCF7FDFFC8
:103B0000802201210248FCF7F8FF002010BD0000D0
:103B1000582900200A0601F07F01D0F8C402C1EB49
:103B2000C10100EB810002D590F83E00704790F88B
:103B3000FE017047002070470020704710B51C46FA
:103B40001346D0F8C4022246FDF78BF8BDE81040BA
:103B5000FFF7D1BE10B5D0F8C402FDF7B2F8BDE84A
:103B60001040FFF7C8BE70B50125044680F89C528E
:103B70000020C4F894026060C4F8A402D4F8BC0227
:103B800028B1D4F8B80200214268204690470022AC
:103B9000402311462046FFF7D1FF4026A4F8645188
:103BA0003346002280212046C4F86061FFF7C6FF3B
:103BB000A5840020266270BD90F89C12042903D1D0
:103BC00090F89D1280F89C120020704710B590F874
:103BD0009C12032904D1D0F8B812C96901B18847F1
:103BE000002010BD01740020704710B5D0F8C40249
:103BF000FDF7DAFBBDE81040FFF77DBE70B5044667
:103C000000F2AA20054600F027F90120C4F894022A
:103C1000B4F8B002C4F8980294F8AA0210F01F0198
:103C20000AD001290ED0022912D000F080012046CE
:103C3000BDE8704000F012B829462046BDE870404B
:103C400000F09CB929462046BDE8704000F0C6BA95
:103C500029462046BDE8704000F01ABA10B5D0F8E9
:103C6000C402FDF752F8BDE81040FFF744BE10B59E
:103C7000D0F8C402FDF7B3FBBDE81040FFF73BBE30
:103C800090F89C1280F89D12042180F89C1200206C
:103C9000704710B5D0F8C402FDF771F8BDE81040C8
:103CA000FFF729BE10B5FEF7DFFB002010BD10B5F1
:103CB000FEF7F8FB002010BD70B504460121FFF7A8
:103CC00049FE0025A4F8785181212046FFF742FEE5
:103CD00025872046FEF704FCD4F8BC0218B101F099
:103CE0005DFDC4F8BC52002070BD00000A210180B7
:103CF0000048704790010020202101800048704753
:103D00005001002020210180004870473001002030
:103D100020210180004870477001002070B50446E2
:103D200041F2740001F012FFC0B1C4F8BC02207C63
:103D30000125C0B14023022201212046FFF7FEFEEB
:103D4000A4F878514023022281212046FFF7F6FE95
:103D500025872046FEF7C9FB002070BD0020C4F86F
:103D6000BC02022070BD4FF40076334602220121CE
:103D70002046FFF7E3FEA4F878513346E3E719B194
:103D8000C0F8C0120020704703207047F8B5002526
:103D9000D0F8BC720646ADF8005008780C4610F01A
:103DA000600120D020293DD16178FE2902D0FF2971
:103DB00038D10EE0618881BBE188012932D100064B
:103DC00030D5D6F8C0028069804701223946386074
:103DD0001FE0618809BBE188F9B9000622D43046AA
:103DE000FEF7A8FB23E0607830B1012824D00A2830
:103DF00009D00B2816D111E096F89C02032811D1A6
:103E00000222694605E096F89C0203280AD10122A5
:103E1000391D3046FFF74EFC09E003E096F89C029E
:103E2000032806D021463046FFF72EFC03252846FE
:103E3000F8BDA0787860FAE796F89C020328F6D1DE
:103E400060880028F3D121793046FFF726FE2179DA
:103E50003046FEF7EDFAEAE770B5054611F8010BBA
:103E60002870087868704C1C2046FFF73EFA68807E
:103E7000A41C2046FFF739FAA880A01CFFF735FAEA
:103E8000E88070BD38B504460020ADF8000041B1AF
:103E9000C4F8B812896A68468847C4F8CC02002082
:103EA00038BD032038BD02460320D2F8B832002BBB
:103EB00002D01B6810461847704700002DE9F041FA
:103EC0000F462C4E8978002504463170012906D909
:103ED00039462046FFF7D8FB0320BDE8F08194F86F
:103EE0009C0202280CD003281DD039462046FFF73B
:103EF000CBFB31782046FFF7AFFB03252846ECE7E4
:103F000099B320466160FFF7CEFF050004D0394623
:103F10002046FFF7B9FBF1E72046FFF7D8FB032067
:103F200084F89C02EAE74FF00208C1B16068884259
:103F30001BD0C1B22046FFF78FFB3178204661606D
:103F4000FFF7B1FF050010D039462046FFF79CFB74
:103F500021792046FFF780FB84F89C82CEE784F825
:103F60009C8220466160FFF777FB2046FFF7AFFB9E
:103F7000C4E70000F4000020FFF779BE2DE9F0410E
:103F80000A78002512F0600208D0202A01D0402AC9
:103F900071D1D0F8B8229268904731E04B78002276
:103FA00001260A2B67D2DFE803F0415E66586608F7
:103FB00005662D29FFF708FC5FE004468888D8B91C
:103FC000C888C8B94888802816D200F07F0794F8BE
:103FD0009C02032810D084F89E7239462046FFF7D1
:103FE00004FE2046FFF773FB1FB1022084F89C02F9
:103FF00043E084F89C6240E020463CE0FFF75EFF2F
:1040000005463AE0CB88012B35D190F89C32012B44
:1040100004D0022B02D0032B2DD104E082600122B8
:1040200000F1080116E00122011D13E090F89C2226
:10403000012A03D0022A01D0032A1CD1CA88022AED
:1040400019D1C660D0F8A41209B10321C1600222BF
:1040500000F10C01FFF72EFB0FE0498801290CD17C
:10406000C0F8A46211E090F89C32012B08D0022B1A
:1040700006D0032B04D0FFF707FB2846BDE8F081EC
:1040800049880129F9D1C0F8A422FFF720FBF4E701
:104090002DE9F0410D46044628780027097910F0F3
:1040A00060000BD0202801D0402873D1D4F8B8028A
:1040B000294682682046904707468CE06878D8B346
:1040C000012822D0032865D194F89C02022802D04E
:1040D00003287CD10BE0002979D0802977D02046B5
:1040E000FFF7BCFD80212046FFF7B8FD73E068882C
:1040F00038B931B1802904D0E88810B92046FFF7DB
:10410000ADFD2046FFF7E3FA65E094F89C02022833
:10411000E1D003285BD16888D8BB480602D020468E
:10412000FFF70FFC2046FFF7D2FAD4F8B802294671
:104130008268204690474EE0FFE794F89C020026F4
:10414000022802D0032842D111E009B180293ED1D2
:10415000080601F07F0000EB800004EB800101D530
:10416000143101E001F5AA7102220E602BE008066D
:1041700001F00F0000EB800004EB80000BD5808C79
:1041800040B101F07F0000EB800004EB80051435A6
:104190000CE020E01BE0B0F86401C0B101F07F004A
:1041A00000EB800004EB800505F5AA7541B180297C
:1041B00006D02046FFF7AEFC10B10120286000E0D9
:1041C0002E60022229462046FFF774FA03E02946B2
:1041D0002046FFF759FA3846BDE8F08170B506462B
:1041E000087800240D4610F0600003D0202801D08C
:1041F000402817D196F89C02012803D0022801D04C
:1042000003280FD1287901280CD8D6F8B802826883
:10421000304690470446E888204306D13046FFF7F1
:1042200056FA02E03046FFF72FFA204670BD000034
:1042300070B50A78012302F00F054E78AB401B4C95
:10424000D0F81C58012E17D045EA0343C0F81C389B
:1042500000EB4210D0F8002B12040BD4D0F8002B46
:104260000B89C978C3F30A031A4344EA81410A431C
:10427000C0F8002B002070BD9BB21D43C0F81C5835
:1042800000EB4210D0F800391B04F3D4D0F8003909
:104290000D89C978C5F30A0589042B4341EA825187
:1042A0000B432343C0F80039E4E70000008000100E
:1042B000D0F800196FF30A01C0F80019D0F80418FB
:1042C00041F48071C0F804180020704770B50446AE
:1042D00006990A9E049D0D98012916D0E06840F0C9
:1042E0004000E060204600F02BF8A16B1EB321F4E3
:1042F0008031A163012D07D1A16841F00601A160C1
:10430000A16841F02001A16070BDA16B21F4803152
:10431000A163E168094A1140E160E16821F44011BC
:10432000E160012803D1E06840F48010E06020469D
:1043300000F006F8DEE741F48031DAE7BFFFBDFFA9
:1043400001220C4902E0521C8A420BD80369002B5F
:10435000F9DA026942F001020261012204E0521C12
:104360008A4201D9032070470369DB07F7D1002097
:1043700070470000400D030030B54C780A780123E7
:1043800000EB4212012C2CD0D2F8004B002C0BDA9F
:10439000D2F8004B44F00064C2F8004BD2F8004B56
:1043A00044F08044C2F8004BD0F83C580C7804F03C
:1043B0000F0403FA04F425EA0444C0F83C48D0F89A
:1043C0001C48097801F00F018B4024EA0341C0F832
:1043D0001C18D2F8000B19490840C2F8000B002045
:1043E00030BDD2F80049002C0BDAD2F8004944F075
:1043F0000064C2F80049D2F8004944F08044C2F891
:104400000049D0F83C480D7805F00F0503FA05F592
:10441000ADB2AC43C0F83C48D0F81C48097801F074
:104420000F018B4099B28C43C0F81C48D2F80009A8
:1044300003490840C2F80009D1E700000078F3EF13
:10444000007833ECD0F8001E21F00301C0F8001E04
:10445000D0F8041821F00201C0F8041800207047B9
:10446000D0F8001E21F00301C0F8001ED0F8041897
:1044700041F00201C0F80418002070472DE9F04F08
:1044800000250E460446DDF82CC0DDF824B0109F50
:104490002846294604EB8002C2F80411401C0F286C
:1044A000F8D32046C7B1806B20F40012A263A06B42
:1044B00040F40022A26308468846C4F8000ED4F8EF
:1044C00000182046C4F80018BCF1010F16D0D0F82F
:1044D000001841F0030116E0D0F8040840F0020291
:1044E000C4F80428A06B40F40012A263A06B20F46F
:1044F0000022A263A06B20F48022DBE7D0F8001832
:104500000BB141F00101C0F80018102100F090FA41
:1045100000B10125204600F07BFA00B1012540469C
:10452000C4F81088C4F81488C4F81C8800214FF01F
:1045300000694FF0904A4FF67F3314E004EB4112CC
:10454000D2F800C9BCF1000F06DA11B1C2F800A917
:1045500004E0C4F8009901E0C2F80009C2F81009AB
:10456000C2F80839491C8E42E8D8002115E000BF86
:1045700004EB4112D2F800CBBCF1000F06DA11B106
:10458000C2F800AB04E0C4F8009B01E0C2F8000BE5
:10459000C2F8100BC2F8083B491C8E42E8D8D4F888
:1045A000101821F48072C4F81028A0616FF08040C8
:1045B0006061BBF1000F03D1A06940F01000A06161
:1045C000A06909490843A0610C9818B1A06940F09E
:1045D0000800A061012F03D1A06904490843A0612C
:1045E0002846BDE8F08F000000383C800400004001
:1045F000816821F0010181600020704770B50D785D
:104600004E78434CEBB200EB4313012E1FD0D3F88E
:10461000100B6FF31200C3F8100BD3F8100B2040EF
:10462000C3F8100B486908B188684861D3F8100BCB
:1046300040F40020C3F8100BD3F8100B8C68C4F3BF
:1046400012042043C3F8100B012A55D058E04E69DC
:10465000002ED3F8106932D06FF31206C3F8106938
:10466000D3F810692640C3F810694E698C68A642D9
:1046700000D94C61D3F8104944F40024C3F8104920
:10468000D3F810494E69C6F312063443C3F81049F3
:10469000012A22D000EB4512D2F8003943F004433E
:1046A000C2F800394A6932B3D0F83428097801F0E9
:1046B0000F03012199400A43C0F8342826E0264020
:1046C000C3F81069D3F8104944F40024C3F8104922
:1046D000D3F810496FF31204D8E7096919B100EB58
:1046E0004512C2F8141900EB4510D0F8001941F03A
:1046F0000441C0F8001909E0C86808B1C3F8140BF8
:10470000D3F8000B40F00440C3F8000B002070BD4C
:10471000FFFF07E010B5036C134CA34203D9D0F898
:10472000003B002B1EDB0023C0F8103BD0F8103BF1
:1047300043F40023C0F8103BD0F8103B43F01803BB
:10474000C0F8103BD0F8103B43F0C043C0F8103B1A
:10475000012907D1C0F8142BD0F8001B41F08021AB
:10476000C0F8001B002010BD0A30544F4A780B7867
:10477000012A00EB43100BD0D0F8002B22F40012DA
:10478000C0F8002BC978032914D0022912D017E0F1
:10479000D0F8002922F40012C0F80029C9780329B2
:1047A00001D002290CD1D0F8001941F08051C0F895
:1047B000001905E0D0F8001B41F08051C0F8001B43
:1047C000002070470A784B78D1B200EB4110012BE2
:1047D00012D0D0F8001B002906DB2AB1D0F8001B4C
:1047E00021F08041C0F8001BD0F8001B41F40011FB
:1047F000C0F8001B00207047D0F80019002906DB24
:104800002AB1D0F8001921F08041C0F80019D0F881
:10481000001941F40011C0F80019EBE7F8B50C7865
:104820004F78774DE3B26FF0604600EB4313012FF2
:1048300026D0D3F8104B6FF31204C3F8104BD3F803
:10484000104B2C40C3F8104B4C69002C74D08D6871
:104850002C44641EB4FBF5F4D3F8105BA4B206EA52
:10486000C4463543C3F8105BD3F8105B8E686643CB
:10487000C6F312042543C3F8105B012A71D0A6E0E9
:104880004F691FB3D3F810796FF31207C3F810798B
:10489000D3F810792F40C3F810794F698D682F44F1
:1048A0007F1EB7FBF5F506EAC545D3F81069354319
:1048B000C3F81059D3F810594E69C6F312063543A0
:1048C000C3F81059CD78012D10D01BE0D3F8106932
:1048D0002E40C3F81069D3F8105945F40025C3F8E9
:1048E0001059D3F810596FF3120509E0D3F8105995
:1048F00025F0C045C3F81059D3F8105945F00055BC
:10490000C3F81059012A18D000EB4413D3F800491A
:1049100044F00444C3F80049CC78012C2FD04A69F4
:1049200062B3D0F83428097801F00F0301219940CF
:104930000A43C0F8342860E036E00A691AB100EB97
:104940004413C3F81429C97801290FD1D0F80818E5
:10495000C90500EB4411D1F8002903D442F00052FC
:1049600002E030E042F08052C1F8002900EB441030
:10497000D0F8001941F00441C0F800193DE0D0F82A
:104980000848E405D3F8004902D444F0005401E09B
:1049900044F08054C3F8004900928A8A93B20A789E
:1049A000C96800F03FF928E0D3F8104B8D68C5F3D3
:1049B00012052C43C3F8104BD3F8104B44F40024D9
:1049C000C3F8104B59E7CA680AB1C3F8142BC97869
:1049D00001290CD1D0F80808C005D3F8000B02D487
:1049E00040F0005001E040F08050C3F8000BD3F8D5
:1049F000000B40F00440C3F8000B0020F8BD00009D
:104A0000FFFF07E0816841F00101816000207047ED
:104A1000002110220261054A491C914201D903205C
:104A200070470369DB06F7D400207047400D030090
:104A30000022202343EA811101610549521C8A4268
:104A400001D90320704703699B06F7D40020704703
:104A5000400D0300D0F8080810F0060004D002282A
:104A600003D0062801D00F2070470220704740690C
:104A700000F001007047D0F81818D0F81C08084062
:104A800080B27047D0F81818D0F81C080840000C05
:104A9000704710B5D0F81038D0F8342801F00F0462
:104AA00000EB4110E24002F00102D0F8080943EAAD
:104AB000C212104010BD00EB4111D1F8081BD0F814
:104AC0001408084070474169806908407047D21C4B
:104AD00010B59308002200F5805002E00468521CD3
:104AE00010C19A42FAD3084610BD10B5C26822F030
:104AF000C042C260012902D029B1012010BDC168A5
:104B000041F0005102E0C16841F08041C1603220B3
:104B1000FBF75AFE002010BDD0F8002822F4FE62F8
:104B2000C0F80028D0F800284FF4FE6303EA011112
:104B30000A43C0F80028002070470000022A3ED136
:104B4000264A274B0A449A4201D20F2138E0254ACF
:104B5000254B0A449A4201D20E2131E0234A244BCC
:104B60000A449A4201D20D212AE0224A224B0A44E9
:104B70009A4201D20C2123E0204A214B0A449A4256
:104B800001D20B211CE01F4A1F4B0A449A4201D25A
:104B90000A2115E01D4A1E4B0A449A420FD31D4AB2
:104BA0001D4B0A449A4201D2082109E01B4A1144D4
:104BB0001B4A914201D2072102E0062100E00921AF
:104BC000C26822F47052C260C2684FF4705303EAA4
:104BD00081210A43C260002070470000405327FF34
:104BE00000350C00401E1BFF40420F0000DC0BFF95
:104BF000804F1200808CF9FE20D6130060B6E5FECF
:104C000060E3160000D3CEFE40771B00C05BB3FE0E
:104C1000C091210000CA91FE20753800E05459FE71
:104C2000E09C410010B5029C64B9DB1C9C0800EBC1
:104C30000230002300F5805002E004C902605B1CD2
:104C4000A342FAD3002010BDFEE700000FB4054BCD
:104C500010B503A9044A029800F000F910BC5DF8F1
:104C600014FB000089570008DC0100207CB50446D5
:104C700000201D46164600290BD0491ECDE90041F3
:104C8000044B6A462946304600F0E8F8009A0021B5
:104C900011707CBD8B5500080907090E002804DB44
:104CA00000F1E02080F80014704700F00F0000F1E0
:104CB000E02080F8141D704702E008C8121F08C1E8
:104CC000002AFAD170477047002001E001C1121F8D
:104CD000002AFBD1704700002DE9FF5F82B0002160
:104CE000DDE90430020DDDF840B0034318D044F68E
:104CF0001050A2F2FF3242431514119801281FD020
:104D0000A5EB0B00401C5FEA000A4FF000064E4F77
:104D1000DFF83891B046504615D5CAF1000413E0CB
:104D2000119801244AA3012801D16FEA0B010298CE
:104D3000119AC0E90031C0E9024206B0BDE8F09F17
:104D4000CBF10000DFE704460021404A491842EB5E
:104D50000450CDE9001012E0E00707D032463B4690
:104D600040464946FBF75DFB8046894632463B4656
:104D700010461946FBF755FB06460F466410002CFB
:104D8000EAD1DDE90401DDE90023BAF1000F06DA1A
:104D9000FBF747FB42464B46FBF743FB05E0FBF7BF
:104DA000B2FB42464B46FBF7AEFB04460E460022E2
:104DB000284BFBF72FFC03D84FF0FF30014607E0EC
:104DC0000022254B20463146FBF784FAFBF70AFC0C
:104DD000102409E0002C0ADB0A220023FBF7F0F97B
:104DE000039B30321A55641E50EA0102F2D1641C52
:104DF000039AC4F111031444119A012A03D0012229
:104E000008430DD10AE0084304D000204FF0110BF5
:104E1000119072E7A3EB0B056D1E0DE05B4504DD01
:104E20004FF0000205F1010504E003DA4FF0000243
:104E3000A5F10105002AECD002981199C0E90231D0
:104E4000C0E9004579E70000000014400000F03F91
:104E5000300000000000F0430000E03F2DE9FF4F6C
:104E600095B09B468946064600250FE2252877D156
:104E700000242746F84A0121059400E0044316F86F
:104E8000013F203B01FA03F01042F7D130782A2885
:104E900011D06FF02F033078A0F13002092A16D814
:104EA000059A44F0020402EB820203EB4202104432
:104EB000761C0590EFE759F8042B0592002A03DAD7
:104EC000504244F40054059044F00204761C3078BB
:104ED0002E2816D116F8010F44F004042A280DD00C
:104EE0006FF02F023078A0F13003092B09D807EBBF
:104EF000870302EB4303C718761CF3E759F8047BDA
:104F0000761C30786C280FD006DC4C2817D0682827
:104F10000DD06A2814D104E0742810D07A280FD15B
:104F20000DE044F400140AE044F4801401E044F479
:104F300040147278824202D104F58014761C761CEB
:104F4000307866280BD013DC582877D009DC00288D
:104F500075D04528F6D04628F4D047281AD19DE1CF
:104F600018E0632835D0642879D0652812D195E1FE
:104F7000702873D008DC6728F1D069286FD06E28BC
:104F80000DD06F2806D1B5E073282CD0752875D0C8
:104F9000782874D05A46179990476D1C75E1C4F370
:104FA0000250022809D003280DD0D9F80010042897
:104FB0000DD00D6009F1040967E1D9F80010EA1776
:104FC000C1E90052F6E7D9F800100D80F2E70D7044
:104FD000F0E719F8041B8DF8001000208DF801008F
:104FE000EA46012003E059F804AB4FF0FF306107B7
:104FF0004FF0000102D40DE008F101018846B942EA
:105000000FDA8045F8DB1AF808100029F4D108E01F
:1050100008F1010188468142FADB1AF808100029DC
:10502000F6D105985B46A0EB080721463846179A4B
:1050300000F094FA284400EB080507E04DE029E170
:105040000DE01AF8010B5A4617999047B8F101087C
:10505000F7D25B4621463846179A13E142E00A220E
:105060000092C4F302524FF0000A022A08D059F805
:1050700004CB032A4FEAEC710AD00DE029E02AE0C4
:1050800009F1070121F00702F2E802C1914609E0A7
:105090000FFA8CFC4FEAEC71042A03D14FFA8CFC16
:1050A0004FEAEC71002907DA0A460021DCF1000C16
:1050B00061EB02012D2202E0220504D52B228DF89E
:1050C0000420012203E0E20701D02022F7E7904606
:1050D00059E00A2102E010220DE010214FF0000AF1
:1050E00000910BE010224FF0000A44F0040408275E
:1050F000009203E008224FF0000A0092C4F302522B
:10510000022A05D059F804CB0021032A08D009E06F
:1051100009F1070121F00702F2E802C1914605E01A
:105120001FFA8CFC042A01D10CF0FF0C4FF0000890
:10513000220728D5702806D0009B83F0100353EA7D
:105140000A0305D00EE040228DF80420012208E079
:105150005CEA010206D030228DF804208DF80500AB
:1051600002229046009B83F0080353EA0A030AD107
:105170005CEA010201D1620705D530228DF80420D6
:105180004FF001087F1E582804D034A003900EA8C9
:1051900002900DE036A0F9E753466046009AFBF70F
:1051A0000FF884460398825C0298401E02900270B9
:1051B0005CEA0100F0D1029806A9081A00F1200A61
:1051C000600702D524F4803400E00127574502DD52
:1051D000A7EB0A0000E0002000EB0A010090059810
:1051E0004144401A0590E00306D45B462146179AD5
:1051F000059800F0B3F90544002706E001A85A46D7
:10520000C05D179990476D1C7F1C4745F6DBE00396
:105210000CD55B462146179A059800F09FF9054486
:1052200004E030205A46179990476D1C0099481E9B
:1052300000900029F5DC08E0029802995A460078AF
:10524000491C0291179990476D1CBAF10001AAF10F
:10525000010AF1DC65E10000092801003031323338
:1052600034353637383961626364656600000000A2
:10527000303132333435363738394142434445468C
:105280000000000000F058F90544761C3078002832
:105290007FF4ECAD19B02846BDE8F08F620700D46A
:1052A000062709F1070222F0070CFCE80223E14679
:1052B00003F000485FEA080C02D00FF2702C0DE0FA
:1052C0005FEA045C02D50FF2682C07E05FEAC47C59
:1052D00002D00FF2602C01E0AFF2700C4FF0FF38FB
:1052E00023F00043CDF850C065280CD006DC4528DB
:1052F00009D046281DD047283DD13DE0662818D06A
:1053000067287ED138E00021112F01DB112000E059
:10531000781CCDE9000106A90EA8FFF7DDFCDDE948
:105320000F010E9A03910021009207F1010A0491E6
:105330004DE04FF000400097CDE9011006A90EA8FE
:10534000FFF7CAFCDDE90F0203920E9B11990022C0
:10535000DDF80CA00093049211B9791C00EB010A4E
:10536000B7EB0A0004D4C0F1FF3007F1010A049042
:10537000AAEB0700019044E0012F00DA0127002189
:10538000112F01DD112000E03846CDE9000106A90A
:105390000EA8FFF7A1FCDDE90F010E9A0391002191
:1053A00004910092BA4621070CD40399514500DAC2
:1053B0008A46BAF1010F05DD009AAAF10101515C9C
:1053C000302908D0B84202DA10F1040F06DA0121C0
:1053D000CDE9011015E0AAF10101E9E7002805DC9B
:1053E000049901440491AAEB000102E0411C5145DB
:1053F00000DD8A460499401A401C01904FF000409D
:105400000290200704D40198504501DBCDF80480B8
:1054100000208DF84F0002980DF14F07B0F1004FBA
:1054200025D02B200E9002984FF0020800280CDAAD
:10543000404202902D200E9007E00A210298FAF7D0
:1054400014FF3031029007F8011DB8F10001A8F1F6
:105450000108F2DC02980028EFD1791E0E9808703E
:10546000307800F0200040F0450007F8020D12A847
:10547000C01B00F107081498007800B1012000EB70
:105480000A01019801EBE07105984144401A401E61
:105490000590E00306D45B462146179A059800F074
:1054A0005DF805441498007818B15A46179990474A
:1054B0006D1CE00324D55B462146179A059800F041
:1054C0004DF805441CE00498002807DBDDE90301E2
:1054D000884203DD0098405C179901E0179930205D
:1054E0005A469047049805F10105401C0490019824
:1054F000401E019004D12E205A46179990476D1CEA
:10550000BAF10001AAF1010ADDDC05E017F8010B90
:105510005A46179990476D1CB8F10001A8F101088F
:10552000F4DC5B462146179A0598ABE62D00000097
:105530002B000000200000002DE9F041044600256A
:105540001E461746880404D405E039462020B0479B
:105550006D1C641EF9D52846BDE8F0812DE9F041A7
:10556000044600251E469046C80301D5302700E0BA
:105570002027880404D505E041463846B0476D1C15
:10558000641EF9D52846BDE8F0814A68002A06D095
:105590000A68531C0B6010704868401E48607047D2
:1055A0002DE9FE4F0E465FEA00084E491D4617469C
:1055B00008F120094FF0010A0DD098F8340098B195
:1055C000D8F81000F119814217D947A001F0A4FCC6
:1055D0000520BDE8FE8F00914DA34FA240F2B921F6
:1055E00055A001F077FCFEE7009158A34AA240F2D3
:1055F000BA2151A001F06EFCFEE7D9F80810484628
:1056000001B18847F0070CD02846314601230090AD
:105610006D1C761C1A46404600F0CEFA040055D1A7
:105620007F1E0121404601F083F904004ED1AD20D8
:105630008DF804000DF1040B35E000BFBAF1000F46
:1056400013D05C46621C3146404600F031FA98F8AF
:10565000350008B1052200E004222878A054A118E2
:10566000687848704FF0000A06E028788DF8050049
:10567000687801228DF80600002000900023D9F8F8
:105680000440484601A9921CA047040003D033A05F
:1056900001F042FC1AE0404601F0B4FE040015D1CE
:1056A000AD1CB61CBF1E022FC8D20021404601F01F
:1056B0003FF904000AD1012F0CD101231A463146CB
:1056C0004046009500F078FA040003D000214046DF
:1056D00001F02EF9D9F80C10484601B18847204650
:1056E00077E700009D7700084572726F723A204696
:1056F0006C617368206164647265737320697320E0
:105700006F7574206F6620626F756E642E000000E6
:10571000666C617368000000282573292068617336
:1057200020617373657274206661696C65642061C1
:10573000742025732E0000002E2E5C736675645C49
:105740007372635C736675642E630000666C6173CC
:10575000682D3E696E69745F6F6B00004572726FF1
:10576000723A20466C6173682077726974652053C1
:10577000504920636F6D6D756E6963617465206556
:1057800072726F722E00000013B564230122694605
:105790000148FCF750FD1CBD4804002010B500284E
:1057A00021D0114B0022001F196803E0814203D869
:1057B0000A4649680029F9D152B11368841A9C42FB
:1057C00004D1006818441060104602E0506000E008
:1057D000186039B102680B1A934203D10B681A445E
:1057E00002604968416010BDE0010020F8B5624DDB
:1057F000040013D001F028FD00286ED1606AA8B122
:105800002069002500281AD0A08A002817D0A06996
:10581000002814D0207F002811D06AE057A359A295
:10582000FC2160A0009501F055FBFEE762A355A2A4
:1058300040F209115BA0009501F04CFBFEE7204609
:1058400000F0DCFD00286DD1204601F01DFC00B306
:10585000A560206D2061B4F84800012817D0012010
:10586000A082606DA06194F8580020775FF001007D
:1058700004EBC002516D31B1A3698B4203D9A16120
:1058800092F858102177401C0428F1D329E0022017
:10589000E6E74D4A267B002000EB400302EBC30104
:1058A0000F79B7421AD14F7994F80DC0674515D1D9
:1058B0008F7994F80EC0674510D100EB400052F884
:1058C0003000A06002EBC300806820618889A0825C
:1058D0000869A061087D207703E023E0401C1528BB
:1058E000DAD32069D0B1A08AC0B1A069B0B1207F5D
:1058F000A0B1354A002094F80C10803A02EBC003A6
:105900001B798B420FD152F8301079B1A268002A6E
:1059100029D02EA0236901F0FFFA0BE036A001F098
:10592000FBFA0120F8BD401C1028E7D340A02169F4
:1059300001F0F2FA204600F0EDFE0028F2D1217DC0
:10594000490706D500220121204601F0ABFC0028C2
:10595000E8D12169B1F1807F0AD92046BDE8F8403D
:10596000012100F05BBF3CA0226901F0D5FAE1E71C
:1059700084F83550F8BD000044770008666C617308
:105980006800000028257329206861732061737303
:10599000657274206661696C65642061742025738A
:1059A0002E0000002E2E5C736675645C7372635C5F
:1059B000736675642E630000666C6173682D3E73B8
:1059C00070692E77720000004C75000846696E649D
:1059D000206120257320257320666C617368206325
:1059E0006869702E2053697A6520697320256C647C
:1059F0002062797465732E005761726E696E673A22
:105A0000205468697320666C6173682064657669E8
:105A10006365206973206E6F7420666F756E6420F5
:105A20006F72206E6F7420737570706F72742E00B9
:105A300046696E64206120666C61736820636869E2
:105A4000702E2053697A6520697320256C6420626A
:105A5000797465732E00000046696E64206120250C
:105A60007320666C61736820636869702E205369C7
:105A70007A6520697320256C642062797465732EC1
:105A800000000000FAF7A2FFFDF736FCFCF78CFDE2
:105A9000FCF7C0FDFCF7FCFDFCF7DEFD01F0D4F9DE
:105AA0004FF4FA70FAF790FE01F0CAF9FEE7000031
:105AB00038B5144B30B172B190F83500002813D0CE
:105AC000042312E0009310A311A24FF4787118A0E0
:105AD00001F000FAFEE700931AA30DA240F2E131B3
